:020000040000fa
:10000000f07f0020210d0000b9100000bb1000009f
:1000100000000000000000000000000000000000e0
:10002000000000000000000000000000530f00006e
:100030000000000000000000530f0000530f0000fc
:10004000530f0000530f0000530f0000530f000028
:10005000530f0000530f0000530f0000530f000018
:10006000530f0000530f0000530f0000530f000008
:10007000530f0000530f0000530f0000530f0000f8
:10008000530f0000530f0000530f0000530f0000e8
:10009000530f0000530f0000530f0000530f0000d8
:1000a000530f0000530f0000530f0000530f0000c8
:1000b000530f0000530f0000530f0000530f0000b8
:1000c000530f0000530f0000530f0000530f0000a8
:1000d000530f0000530f0000530f0000e90200000f
:1000e000e9020000e9020000e9020000530f0000ed
:1000f000530f0000530f0000530f0000530f000078
:10010000530f0000530f0000530f0000530f000067
:10011000530f0000530f0000530f0000530f000057
:10012000530f0000530f0000530f0000530f000047
:10013000530f0000530f0000530f0000530f000037
:10014000530f0000530f0000530f0000530f000027
:10015000530f0000530f0000530f0000f07f0020ea
:10016000210d0000b9100000bb10000000000000cd
:10017000000000000000000000000000000000007f
:100180000000000000000000530f0000000000000d
:1001900000000000530f0000530f0000530f000039
:1001a000530f0000530f0000530f0000530f0000c7
:1001b000530f0000530f0000530f0000530f0000b7
:1001c000530f0000530f0000530f0000530f0000a7
:1001d000530f0000530f0000530f0000530f000097
:1001e000530f0000530f0000530f0000530f000087
:1001f000530f0000530f0000530f0000530f000077
:10020000530f0000530f0000530f0000530f000066
:10021000530f0000530f0000530f0000530f000056
:10022000530f0000530f0000530f0000530f000046
:10023000530f0000530f0000c1100000c110000058
:10024000c1100000c1100000530f0000530f000048
:10025000530f0000530f0000530f0000530f000016
:10026000530f0000530f0000530f0000530f000006
:10027000530f0000530f0000530f0000530f0000f6
:10028000530f0000530f0000530f0000530f0000e6
:10029000530f0000530f0000530f0000530f0000d6
:1002a000530f0000530f0000530f0000530f0000c6
:0802b000530f0000530f000082
:020000040000fa
:1002b800401801000200030084468ef3008874474a
:1002c800f8b5c046f8bc08bc9e467047990d0000ba
:1002d800f8b5c046f8bc08bc9e467047750d0000ce
:020000040000fa
:1002e800f0b5d6464f464646c0b582b040f6004304
:1002f800c4f200239b7d002b00d133e140f600427d
:10030800c4f20022137edbb2927d52b2002a22dbb5
:1003180040f60043c4f200231a7ed2b29b7ddb076d
:1003280000d40ee1d30700d40be140f2a014c2f2ce
:10033800000440f60045c4f2002523699846237d51
:100348009c4640f2010a07266b46991d40f2800040
:10035800c2f2000044e05bb2002bd9da40f6004359
:10036800c4f200235b8b07221340002bd0d040f24d
:10037800a012c2f20002d38740f60043c4f2002361
:1003880080221a76793a5a831b7e5b0708d540f695
:100398000043c4f2002304219a6a1a7e0a42fbd160
:1003a80040f2a013c2f200031a6a002ab0d040f249
:1003b800a013c2f20003596a02209047a8e75a0026
:1003c800875c0f7040f28007c2f20007b9464a44c2
:1003d80052784a70013314e00b78ab626346dbb99c
:1003e8002b7e5246134200d1abe0a268e3689a42e2
:1003f80000d1a0e06a683240012ae0d0c25c0a70ed
:100408000133434592411340e3606b683340012b4d
:10041800e2d10b88ab62e1e700f0e8fd2368002b2e
:100428008bd0227f32b1a269904286d361680320c3
:10043800984782e7a269904200d07ee7616803206e
:1004480098477ae7226a002a55d0616a01209047c6
:10045800a36a0133226b9342924113404be040f26e
:10046800a012c2f20002926a520040f20001c2f2e7
:1004780000018d548c466244adb22d0a55704ce093
:1004880000f051fd40f2a013c2f200031a6a002adc
:100498004cd040f2a013c2f200033c215b5c73b164
:1004a80040f2a013c2f200039b6b98423ed340f285
:1004b800a013c2f20003596a0020904736e040f2c8
:1004c800a013c2f200039b6b98422fd140f2a013f5
:1004d800c2f20003596a0020904727e0337e3b426e
:1004e80040d0b56aa36a0133226b9342924113400c
:1004f800e26a9a42a6d0e26a9a42efd0716807226d
:100508000a40012aabd040f2a012c2f20002916a5e
:1005180040f20002c2f20002555440f2a012c2f2a8
:10052800000293623423d35c002ba9d140f2a014bb
:10053800c2f20004d2e740f60043c4f200230122cd
:100548001a7540f60043c4f200231a7ed2b29b7d8e
:100558005b0707d5530705d540f60046c4f20026c9
:100568000427e3e702b01cbc90469946a246f0bdba
:020000040000fa
:10057800f0b5de4657464e464546e0b583b081465f
:100588000800002900d185e040f2a013c2f2000360
:100598001b699c46002440f60046c4f20026072149
:1005a80040f2a012c2f2000201234b449a4640f2e4
:1005b8008008c2f2000863460093019008e04046b4
:1005c800674647559360631c0134019898424fd998
:1005d80073680b40012b1dd09568d3689c466b1c33
:1005e80000988342804103409c4542d04846005dc4
:1005f8008446706808400128e1d16d00404667468e
:10060800475540f28000c2f200008446654400204d
:100618006870d7e793689c46d56801330098834291
:10062800804103409d4224d06000834650465d4689
:10063800455d2d0248465f46c05d05437068084029
:10064800012805d040466746c5559360631cbbe743
:1006580060464000844640466746c55540f28000e3
:10066800c2f200008346dc442d0a60464570ece780
:100678001c0000f046fc28b140f60043c4f20023f9
:1006880001229a75200003b03cbc90469946a246c8
:08069800ab46f0bd0c00ece7dd
:020000040000fa
:1006a000e00100201c00000000000000000000200d
:1006b000800000000000000080000020800000009a
:1006c00000000000a0010020400000000000000029
:1006d0000e02002002000000000000000d020020b9
:1006e0000100000000000000000100205000000098
:1006f00000000000fc0100200400000000000000d9
:100700001002002001000000000000001102002083
:1007100001000000000000001202002001000000a3
:1007200000000000000200200400000000000000a3
:10073000130200200100000000000000140200204d
:100740000100000000000000150200200100000070
:10075000000000000c02002001000000000000006a
:1007600004020020040000000000000050010020ee
:1007700050000000000000000802002004000000fb
:100780000000000000000000000000004444444459
:020000040000fa
:1007900010b540f21223c2f20003187830b940f6c7
:1007a0005473c0f20003db68984700b910bd40f6ef
:1007b0005473c0f200035b689847020040f21123b3
:1007c000c2f200031b789bb3252819d040f2002306
:1007d000c2f20003196840f2fc12c2f2000240f2b9
:1007e0001023c2f200031c7813681b1999422cd203
:1007f00040f20023c2f200034a1c1a60087024e091
:1008000040f21123c2f2000300221a7040f20023ca
:10081000c2f200031b681a7040f2fc13c2f200031c
:10082000186840f65473c0f200031b6a98470ce046
:10083000252810d040f21223c2f2000301221a70c0
:1008400040f21323c2f20003187040f21223c2f2e6
:1008500000031878aae740f21123c2f20003243af9
:100860001a7040f20023c2f2000340f2fc12c2f2fe
:08087000000212681a60e8e7bb
:020000040000fa
:1008780041f20003c4f200030220187641f200415d
:10088800c4f2000100220a7441f60001c4f200011a
:1008980008621a8641f20002c4f20002802149046b
:1008a80013690b42fcd046f22003c0f280031b6898
:1008b8005b009b0e9b0240f200221343d200c4f25d
:1008c8000002536341f20002c4f20002802149048d
:1008d80013690b42fcd041f20003c4f20003022268
:1008e8001a86d202c4f200028021490413690b421d
:1008f800fcd041f60043c4f2000340f20712c0f2f4
:1009080001021a6241f60042c4f20002042153684f
:100918001942fcd141f60043c4f20003cc22402125
:10092800995041f60042c4f20002cc2013581942f3
:04093800fcd0704738
:020000040000fa
:10093c0040f60043c4f2002340f20412c4f2120247
:10094c001a60284a9a81c02292025a6040f60042ec
:10095c00c4f20022d369002bfcd140f60043c4f250
:10096c0000231a6802210a431a6040f60042c4f2be
:10097c000022d369002bfcd140f2a013c2f2000379
:10098c0000221a629a62da6234215a5408315a549b
:10099c009a63da871a609a60da6000211975197700
:1009ac009a6140f60043c4f200235a6807231340af
:1009bc00012b0fd040f2a013c2f2000380221a6365
:1009cc001a6140f60043c4f2002380229a757c3ae7
:1009dc009a75704740f2a013c2f2000340221a63ca
:0809ec001a61eee72bf6ffff94
:020000040000fa
:1009f400f0b5de4657464e464546e0b5020040f2a5
:100a0400a010c2f20000c36a856a002944d0ab4238
:100a140045d040f2a010c2f20000006b80461400e2
:100a2400012040f60047c4f2002740f2070c40f2d0
:100a3400000bc2f2000b013a91460ee05a46d25c1a
:100a44004e4632540133434592411340884217d2f3
:100a5400421c0234ab4214d010007a68664632401d
:100a6400012aebd15a005e46b65c267040f20006bd
:100a7400c2f20006b2465244527862700133e2e791
:100a84001d0040f2a013c2f20003dd623cbc90469c
:100a94009946a246ab46f0bd1d000800f1e70020d0
:020aa400efe77a
:020000040000fa
:100aa60010b5040040f69c71c0f2000100f001fa96
:100ab60058b140f21523c2f2000300221a7040f228
:100ac6001423c2f200031a7010bd40f69c71c0f2e6
:100ad60000010c31200000f0ecf930b140f2152392
:100ae600c2f2000301221a70eee740f69c71c0f2d2
:100af60000011831200000f0dcf90028e4d040f2b3
:100b06001423c2f2000301221a700d2000f085faa8
:100b16000a2000f082fa4f2000f07ffa542000f0fd
:100b26007cfa412000f079fa412000f076fa2c2078
:100b360000f073fa302000f070fa312000f06dfa00
:0e0b46000d2000f06afa0a2000f067fabce702
:020000040000fa
:100b5400f0b5c64600b540f20010c2f200005021c4
:100b640000f0bdf918b9002004bc9046f0bd40f275
:100b74000d24c2f2000440f20008464640f20e255d
:100b8400c2f200050be02b88642b18d001332b80b4
:100b940040f65473c0f20003db69012098472670c5
:100ba40000f068fa070000f06bfa97b188b9fff714
:100bb400edfd0028e7d000f0ddf92070f7e740f6fe
:100bc4005473c0f200031b683130984743462b80ae
:100bd400e5e7fff7dbfd0028e1d000f0cbf920705a
:020be400f7e731
:020000040000fa
:020be600704756
:020000040000fa
:100be8000021f0b5174b184a934208d340f20b0c7a
:100bf8000027164a1368516823b919b9f0bd19704e
:100c08000133f1e7100095680c305c18b5b1654602
:100c1800ed1a5219a3420ad10b00032213405a1e9f
:100c2800934189085918890040180200e2e75d1cc1
:100c3800ae5c1e702b00ede71f700133a342fbd1a1
:100c4800f3e7c0460000002000000020a0060000d6
:020000040000fa
:100c5800bff35f8f62b64ef20013cef2000340f28c
:100c680024301a581202120ac02109060a431a50df
:100c780080225a6040f228329958ff2081433f3839
:100c88000143995040f200115960995809480140b0
:100c98004cf200000143995040f2002159609958e4
:100ca80005480840c021090401439950d8325a60c8
:0c0cb8007047c046ff00ffffffff00ff79
:020000040000fa
:100cc40000230e4a10b513600d4a0e4c13600e4af1
:100cd40013600e4a13600e4a13600e4a5362136186
:100ce4000133936000f0ebf900f0e9f90a4b9c4200
:100cf40000d310bd08cc9847f8e7c046080200208e
:100d04005c010020d40200005801002050010020a2
:0c0d14005401002060010020d802000003
:020000040000fa
:100d200010b540f69b73c0f20003984740f69b73e2
:100d3000c0f20003984700f0bbf940f20003c0f294
:100d400000037f2293434ef60052cef200029360de
:100d500040f6c543c0f20003984740f69b73c0f2cb
:100d60000003984740f69b73c0f20003984700f0d9
:040d70003ef8fee764
:020000040000fa
:100d740010b5054c227832b9044b13b1044800e095
:100d840000bf0123237010bde0010020000000001b
:100d940000000000034b10b51bb10349034800e0f9
:100da40000bf10bd00000000e401002000000000ae
:020000040000fa
:100db40040f20043c4f2000300221a819a7901210f
:100dc4000a439a719b7803221340022b0cd040f201
:100dd4000043c4f20003013a9a705202c4f20002c2
:0a0de400012193790b42fcd0704707
:020000040000fa
:100dee0010b582b08023db021c68002000f047f8ab
:100dfe00631c0fd084f388880423c0f204031b689d
:100e0e000193019c6408640020002100220023004d
:0a0e1e0000f01cf8fff797fefee756
:020000040000fa
:100e280043f20023c4f2000310221a600022442176
:100e38005a544339562019540130195431315a54ef
:100e4800093124385854da66b1315a5080315a5031
:020e58007047e1
:020000040000fa
:100e5a00e0b545464e465746e0b45d4620b42546c1
:100e6a0026462746a046a146a246a346a44684f3a0
:100e7a000088a44720bcab46e0bcba46b146a846a7
:020e8a00e0bdc9
:020000040000fa
:100e8c0010b5fff791ff45f20003c4f200130422e2
:100e9c005a60fff7c3fffff7e9fcfff749fd00f0cd
:0c0eac00cef8fff79afefff7d1fe10bd54
:020000040000fa
:100eb8000a7830b562b930bd9a4208d10123cc5cba
:100ec800002cf8d0c55ca54201d10133f7e7013009
:0a0ed8000378002bf0d11800ede7bd
:020000040000fa
:100ee200030078b1002001290bd940f2fc12c2f2b2
:100ef2000002136040f21023c2f20003013919709c
:080f0200013070470020fce7fc
:020000040000fa
:100f0a0040f2a012c2f200029068d368984201d35c
:100f1a00c01a704740f2a012c2f200021269801889
:040f2a00c01af6e70c
:020000040000fa
:100f2e0040f2a012c2f20002d36a906a834201d844
:100f3e00c01a704740f2a012c2f20002126b801863
:040f4e00c01af6e7e8
:020000040000fa
:020f5200fee7b8
:020000040000fa
:100f5400a110000099100000a91000005d1000000d
:100f6400bd100000bd0f0000bf10000037100000ce
:040f7400a70a0000c8
:020000040000fa
:100f780010b5fff709fc0028fbd040f21223c2f29b
:100f8800000300221a7040f21323c2f200031878fb
:020f980010bd8a
:020000040000fa
:020f9a0070479e
:020000040000fa
:100f9c00444953434f4e4e4543540000535452451d
:100fac00414d5f4f50454e004f54415f52455100eb
:020000040000fa
:100fbc0030b143f20023c4f2000310225a6170478f
:0e0fcc0043f20023c4f2000310229a61f7e7fb
:020000040000fa
:100fda0010b5fff7bafd010002000300844610bcf9
:0a0fea0002bc864681f300880c4724
:020000040000fa
:100ff40010b540f2a013c2f200031c69fff783ff8f
:06100400013c201a10bda2
:020000040000fa
:10100a0010b540f20c24c2f2000401212000fff7bf
:06101a00ecfc207810bd83
:020000040000fa
:1010200000b583b06b46d871073301211800fff774
:06103000a3fa03b000bdad
:020000040000fa
:1010360038b14bf680335843431e10b1c046013bce
:04104600fcd2704721
:020000040000fa
:10104a0045f20003c4f2001306225a60053a1a72e6
:02105a007047dd
:020000040000fa
:0e105c0010b5fff766ff431e9841c0b210bded
:020000040000fa
:0e106a0010b500f010f843425841c0b210bd5e
:020000040000fa
:0c10780040f21523c2f200031878704704
:020000040000fa
:0c10840040f21423c2f2000318787047f9
:020000040000fa
:0810900010b5fff73aff10bd97
:020000040000fa
:0810980010b5fff7b6ff10bd13
:020000040000fa
:0810a00010b5fff7bdff10bd04
:020000040000fa
:0810a80010b5fff7deff10bddb
:020000040000fa
:0810b00010b5fff799fd10bd1a
:020000040000fa
:0210b800fee751
:020000040000fa
:0210ba00fee74f
:020000040000fa
:0210bc0070477b
:020000040000fa
:0210be00704779
:020000040000fa
:0210c000fee749
:020000040000fa
:0210c200704775
:020000040000fa
:020000040003f7
:10fe00007fe97fe9c0f758ba7fe97fe9c1f7e5b834
:020000040000fa
:0200000400807a
:0440000077438fb0c3
:020000040000fa
:0200000400807a
:04400400bbf0ffff0f
:020000040000fa
:0200000400807a
:04400800008430f010
:020000040000fa
:0200000400807a
:04400c0000ffffffb3
:020000040000fa
:0200000400807a
:0440100000000000ac
:020000040000fa
:0200000400807a
:0440140002000000a6
:020000040000fa
:0200000400807a
:0440180000000000a4
:020000040000fa
:0200000400807a
:04401c0000000000a0
:020000040000fa
:0200000400807a
:04402000b67376e815
:020000040000fa
:0200000400807a
:04c00000ffff07f047
:020000040000fa
:0200000400807a
:04c004000000e8ff51
:020000040000fa
:0200000400807a
:04c00800cc9a34c0da
:020000040000fa
:0200000400807a
:04c01000ffffffff30
:020000040000fa
:0200000400807a
:04c01400ffffffff2c
:020000040000fa
:0200000400807a
:04c01800ffffffff28
:020000040000fa
:0200000400807a
:04c01c00ffffffff24
:020000040000fa
:0200000400807a
:04c02000ffffffff20
:020000040000fa
:0200000400807a
:04c02400ffffffff1c
:020000040000fa
:0200000400807a
:04c02800ffffffff18
:020000040000fa
:0200000400807a
:04c02c00ffffffff14
:020000040000fa
:0200000400807a
:04c03000ffffffff10
:020000040000fa
:0200000400807a
:04c03400ffffffff0c
:020000040000fa
:0200000400807a
:04c03800ffffffff08
:020000040000fa
:0200000400807a
:04c03c00ffffffff04
:020000040000fa
:0200000400807a
:04c04000ffffffff00
:020000040000fa
:0200000400807a
:04c04400fffffffffc
:020000040000fa
:0200000400807a
:04c04800fffffffff8
:020000040000fa
:0200000400807a
:04c04c00fffffffff4
:020000040000fa
:0200000400807a
:04c05000fffffffff0
:020000040000fa
:0200000400807a
:04c05400ffffffffec
:020000040000fa
:0200000400807a
:04c05800ffffffffe8
:020000040000fa
:0200000400807a
:04c05c00ffffffffe4
:020000040000fa
:0200000400807a
:04c06000ffffffffe0
:020000040000fa
:0200000400807a
:04c06400ffffffffdc
:020000040000fa
:0200000400807a
:04c06800ffffffffd8
:020000040000fa
:0200000400807a
:04c06c00ffffffffd4
:020000040000fa
:0200000400807a
:04c07000ffffffffd0
:020000040000fa
:0200000400807a
:04c07400ffffffffcc
:020000040000fa
:0200000400807a
:04c07800ffffffffc8
:020000040000fa
:0200000400807a
:04c07c00ffffffffc4
:020000040000fa
:0200000400807a
:04c08000ffffffffc0
:020000040000fa
:0200000400807a
:04c08400ffffffffbc
:020000040000fa
:0200000400807a
:04c08800ffffffffb8
:020000040000fa
:0200000400807a
:04c08c00ffffffffb4
:020000040000fa
:0200000400807a
:04c09000ffffffffb0
:020000040000fa
:0200000400807a
:04c09400ffffffffac
:020000040000fa
:0200000400807a
:04c09800ffffffffa8
:020000040000fa
:0200000400807a
:04c09c00ffffffffa4
:020000040000fa
:0200000400807a
:04c0a000ffffffffa0
:020000040000fa
:0200000400807a
:04c0a400ffffffff9c
:020000040000fa
:0200000400807a
:04c0a800ffffffff98
:020000040000fa
:0200000400807a
:04c0ac00ffffffff94
:020000040000fa
:0200000400807a
:04c0e000ffffffff60
:020000040000fa
:0200000400807a
:04c0e400ffffffff5c
:020000040000fa
:0200000400807a
:04c0e800ffffffff58
:020000040000fa
:0200000400807a
:04c0ec00ffffffff54
:020000040000fa
:0200000400807a
:04c0f000ffffffff50
:020000040000fa
:0200000400807a
:04c0f400ffffffff4c
:020000040000fa
:0200000400807a
:04c0f800ffffffff48
:020000040000fa
:0200000400807a
:04c0fc00ffffffff44
:00000001FF
