:020000040000fa
:10000000f07f0020fd0e0000df120000e112000072
:1000100000000000000000000000000000000000e0
:100020000000000000000000000000003b10000085
:1000300000000000000000003b1000003b1000002a
:100040003b1000003b1000003b1000003b10000084
:100050003b1000003b1000003b1000003b10000074
:100060003b1000003b1000003b1000003b10000064
:100070003b1000003b1000003b1000003b10000054
:100080003b1000003b1000003b1000003b10000044
:100090003b1000003b1000003b1000003b10000034
:1000a0003b1000003b1000003b1000003b10000024
:1000b0003b1000003b1000003b1000003b10000014
:1000c0003b1000003b1000003b1000003b10000004
:1000d0003b1000003b1000003b100000e902000054
:1000e000e9020000e9020000e90200003b10000004
:1000f0003b1000003b1000003b1000003b100000d4
:100100003b1000003b1000003b1000003b100000c3
:100110003b1000003b1000003b1000003b100000b3
:100120003b1000003b1000003b1000003b100000a3
:100130003b1000003b1000003b1000003b10000093
:100140003b1000003b1000003b1000003b10000083
:100150003b1000003b1000003b100000f07f00202f
:10016000fd0e0000df120000e112000000000000a0
:10017000000000000000000000000000000000007f
:1001800000000000000000003b1000000000000024
:10019000000000003b1000003b1000003b1000007e
:1001a0003b1000003b1000003b1000003b10000023
:1001b0003b1000003b1000003b1000003b10000013
:1001c0003b1000003b1000003b1000003b10000003
:1001d0003b1000003b1000003b1000003b100000f3
:1001e0003b1000003b1000003b1000003b100000e3
:1001f0003b1000003b1000003b1000003b100000d3
:100200003b1000003b1000003b1000003b100000c2
:100210003b1000003b1000003b1000003b100000b2
:100220003b1000003b1000003b1000003b100000a2
:100230003b1000003b100000e7120000e712000036
:10024000e7120000e71200003b1000003b10000026
:100250003b1000003b1000003b1000003b10000072
:100260003b1000003b1000003b1000003b10000062
:100270003b1000003b1000003b1000003b10000052
:100280003b1000003b1000003b1000003b10000042
:100290003b1000003b1000003b1000003b10000032
:1002a0003b1000003b1000003b1000003b10000022
:0802b0003b1000003b100000b0
:020000040000fa
:1002b800401801000200030084468ef3008874474a
:1002c800f8b5c046f8bc08bc9e467047750f0000dc
:1002d800f8b5c046f8bc08bc9e467047510f0000f0
:020000040000fa
:1002e800f0b5d6464f464646c0b582b040f6004304
:1002f800c4f200239b7d002b00d133e140f600427d
:10030800c4f20022137edbb2927d52b2002a22dbb5
:1003180040f60043c4f200231a7ed2b29b7ddb076d
:1003280000d40ee1d30700d40be140f20424c2f25a
:10033800000440f60045c4f2002523699846237d51
:100348009c4640f2010a07266b46991d40f2800040
:10035800c2f2000044e05bb2002bd9da40f6004359
:10036800c4f200235b8b07221340002bd0d040f24d
:100378000422c2f20002d38740f60043c4f20023ed
:1003880080221a76793a5a831b7e5b0708d540f695
:100398000043c4f2002304219a6a1a7e0a42fbd160
:1003a80040f20423c2f200031a6a002ab0d040f2d5
:1003b8000423c2f20003596a02209047a8e75a00b2
:1003c800875c0f7040f28007c2f20007b9464a44c2
:1003d80052784a70013314e00b78ab626346dbb99c
:1003e8002b7e5246134200d1abe0a268e3689a42e2
:1003f80000d1a0e06a683240012ae0d0c25c0a70ed
:100408000133434592411340e3606b683340012b4d
:10041800e2d10b88ab62e1e700f0fbfe2368002b1a
:100428008bd0227f32b1a269904286d361680320c3
:10043800984782e7a269904200d07ee7616803206e
:1004480098477ae7226a002a55d0616a01209047c6
:10045800a36a0133226b9342924113404be040f26e
:100468000422c2f20002926a520040f20001c2f273
:1004780000018d548c466244adb22d0a55704ce093
:1004880000f075fe40f20423c2f200031a6a002a43
:100498004cd040f20423c2f200033c215b5c73b1f0
:1004a80040f20423c2f200039b6b98423ed340f211
:1004b8000423c2f20003596a0020904736e040f254
:1004c8000423c2f200039b6b98422fd140f204230d
:1004d800c2f20003596a0020904727e0337e3b426e
:1004e80040d0b56aa36a0133226b9342924113400c
:1004f800e26a9a42a6d0e26a9a42efd0716807226d
:100508000a40012aabd040f20422c2f20002916aea
:1005180040f20002c2f20002555440f20422c2f234
:10052800000293623423d35c002ba9d140f2042447
:10053800c2f20004d2e740f60043c4f200230122cd
:100548001a7540f60043c4f200231a7ed2b29b7d8e
:100558005b0707d5530705d540f60046c4f20026c9
:100568000427e3e702b01cbc90469946a246f0bdba
:020000040000fa
:10057800f8b5040040f28423c2f200031b680bb3f1
:1005880000200f2740f28826c2f2000606e0421c2f
:10059800d2b231540f2b0bd910002b001d093a0091
:1005a8001a4011003731092af1d830321100eee72c
:1005b80040f26c23c2f20003196040f28423c2f2b5
:1005c80000031d6041f23c01c0f20001200000f070
:1005d80093fd80b140f28223c2f2000300221a7018
:1005e80040f28123c2f200031a7040f28323c2f260
:1005f80000031a70f8bd41f23c01c0f200010c3151
:10060800200000f079fd30b140f28323c2f20003ec
:1006180001221a70eee741f23c01c0f200011831e4
:10062800200000f069fd00284dd040f28323c2f27b
:10063800000300221a70002340f20011c2f20001e8
:10064800e25c5a540133312bfad140f20014c2f261
:10065800000404220821200000f0d0fc08220d210b
:10066800200000f0cbfc08221621200000f0c6fc78
:1006780008221f21200000f0c1fc042228212000ac
:1006880000f0bcfc04222d21200000f0b7fc4f2014
:1006980000f0d5fd542000f0d2fd412000f0cffd40
:1006a800412000f0ccfd2c2000f0c9fd302000f0e6
:1006b800c6fd312000f0c3fd0d2000f0c0fd0a206a
:1006c80000f0bdfd96e741f23c01c0f20001203187
:1006d800200000f011fd60b140f28123c2f2000356
:1006e80001221a7040f28323c2f2000300221a701a
:1006f80080e741f23c01c0f200012c31200000f0fb
:10070800fbfc002800d175e740f28223c2f2000307
:0607180001221a706ee7d9
:020000040000fa
:02071e00704722
:020000040000fa
:10072000440200201c000000000000000000002027
:100730008000000000000000800000208000000019
:100740000000000004020020400000000000000043
:100750007a02002002000000000000007902002060
:1007600001000000000000006401002050000000b3
:1007700000000000600200200400000000000000f3
:100780007c02002001000000000000007d0200202b
:1007900001000000000000007e02002001000000b7
:1007a00000000000640200200400000000000000bf
:1007b0007f020020010000000000000080020020f5
:1007c00001000000000000008c0200200100000079
:1007d000010000002500000081020020010000004f
:1007e0000000000000010020640000000000000084
:1007f00082020020010000000000000068020020ca
:100800000400000000000000780200200100000049
:100810000000000083020020010000000000000032
:100820006c02002004000000000000008402002090
:100830000400000001000000000100008802002008
:100840000400000001000000303030307002002051
:100850000400000000000000b4010020500000006f
:1008600000000000740200200400000000000000ee
:100870000000000000000000444444444444444458
:020000040000fa
:1008800070b540f27e23c2f20003187830b941f20d
:100890009c13c0f20003db68984700b970bd41f2b9
:1008a0009c13c0f200035b6898470400050040f207
:1008b0007d23c2f200031b78c3b340f28c23c2f243
:1008c00000031b78834219d040f26423c2f2000374
:1008d000196840f26022c2f2000240f27c23c2f2a8
:1008e0000003187813681b1899425ad240f2642307
:1008f000c2f200034a1c1a600c7052e040f27d23e1
:10090000c2f2000300221a7040f26423c2f2000314
:100910001b681a7040f26023c2f20003186841f2ab
:100920009c13c0f200031b6a98473ae040f28c2304
:10093000c2f200031b78834219d140f28023c2f235
:1009400000031b78ebb900f0aafcd0b940f27d237c
:10095000c2f2000301221a7040f26423c2f20003c3
:1009600040f26022c2f2000212681a6019e000f040
:1009700096fce0b140f28c23c2f200031b78ab423c
:10098000dbd040f28023c2f2000301221a7040f251
:100990007e23c2f200031a7040f27f23c2f20003ea
:1009a0001c7040f27e23c2f20003187876e700f054
:1009b0007cfc0028ded140f27d23c2f2000301223c
:1009c0001a7040f26023c2f200031a6840f26423f6
:0c09d000c2f20003511c19601470e2e731
:020000040000fa
:1009dc00f0b5de4657464e464546e0b583b08146f7
:1009ec000800002900d185e040f20423c2f2000384
:1009fc001b699c46002440f60046c4f200260721e1
:100a0c0040f20422c2f2000201234b449a4640f207
:100a1c008008c2f2000863460093019008e040464b
:100a2c00674647559360631c0134019898424fd92f
:100a3c0073680b40012b1dd09568d3689c466b1cca
:100a4c0000988342804103409c4542d04846005d5b
:100a5c008446706808400128e1d16d004046674625
:100a6c00475540f28000c2f20000844665440020e5
:100a7c006870d7e793689c46d56801330098834229
:100a8c00804103409d4224d06000834650465d4621
:100a9c00455d2d0248465f46c05d054370680840c1
:100aac00012805d040466746c5559360631cbbe7db
:100abc0060464000844640466746c55540f280007b
:100acc00c2f200008346dc442d0a60464570ece718
:100adc001c0000f038fb28b140f60043c4f20023a0
:100aec0001229a75200003b03cbc90469946a24660
:080afc00ab46f0bd0c00ece775
:020000040000fa
:100b040041f20003c4f200030220187641f20041ce
:100b1400c4f2000100220a7441f60001c4f200018b
:100b240008621a8641f20002c4f2000280214904dc
:100b340013690b42fcd046f22003c0f280031b6809
:100b44005b009b0e9b0240f200221343d200c4f2ce
:100b54000002536341f20002c4f2000280214904fe
:100b640013690b42fcd041f20003c4f200030222d9
:100b74001a86d202c4f200028021490413690b428e
:100b8400fcd041f60043c4f2000340f20712c0f265
:100b940001021a6241f60042c4f2000204215368c1
:100ba4001942fcd141f60043c4f20003cc22402197
:100bb400995041f60042c4f20002cc201358194265
:040bc400fcd07047aa
:020000040000fa
:100bc80040f60043c4f2002340f20412c4f21202b9
:100bd8001a60284a9a81c02292025a6040f600425e
:100be800c4f20022d369002bfcd140f60043c4f2c2
:100bf80000231a6802210a431a6040f60042c4f230
:100c08000022d369002bfcd140f20423c2f2000376
:100c180000221a629a62da6234215a5408315a540c
:100c28009a63da871a609a60da6000211975197771
:100c38009a6140f60043c4f200235a680723134020
:100c4800012b0fd040f20423c2f2000380221a6362
:100c58001a6140f60043c4f2002380229a757c3a58
:100c68009a75704740f20423c2f2000340221a63c7
:080c78001a61eee72bf6ffff05
:020000040000fa
:100c8000f0b5de4657464e464546e0b5020040f216
:100c90000420c2f20000c36a856a002944d0ab4236
:100ca00045d040f20420c2f20000006b80461400e0
:100cb000012040f60047c4f2002740f2070c40f242
:100cc000000bc2f2000b013a91460ee05a46d25c8c
:100cd0004e4632540133434592411340884217d265
:100ce000421c0234ab4214d010007a68664632408f
:100cf000012aebd15a005e46b65c267040f200062f
:100d0000c2f20006b2465244527862700133e2e702
:100d10001d0040f20423c2f20003dd623cbc904699
:100d20009946a246ab46f0bd1d000800f1e7002041
:020d3000efe7eb
:020000040000fa
:100d3200f0b5c64600b540f26410c2f20000502180
:100d420000f0f2f918b9002004bc9046f0bd40f260
:100d52007924c2f2000440f20008464640f27a25a5
:100d6200c2f200050be02b88642b18d001332b80d4
:100d720041f29c13c0f20003db6901209847267000
:100d820000f092fa070000f089fa97b188b9fff7ec
:100d920076fd0028e7d000f012fa2070f7e741f262
:100da2009c13c0f200031b683130984743462b80e6
:100db200e5e7fff764fd0028e1d000f000fa2070bb
:020dc200f7e751
:020000040000fa
:100dc4000021f0b5174b184a934208d340f20b0c9c
:100dd4000027164a1368516823b919b9f0bd197070
:100de4000133f1e7100095680c305c18b5b1654625
:100df400ed1a5219a3420ad10b00032213405a1ec2
:100e0400934189085918890040180200e2e75d1ce3
:100e1400ae5c1e702b00ede71f700133a342fbd1c3
:100e2400f3e7c04600000020000000202007000077
:020000040000fa
:100e3400bff35f8f62b64ef20013cef2000340f2ae
:100e440024301a581202120ac02109060a431a5001
:100e540080225a6040f228329958ff2081433f385b
:100e64000143995040f200115960995809480140d2
:100e74004cf200000143995040f200215960995806
:100e840005480840c021090401439950d8325a60ea
:0c0e94007047c046ff00ffffffff00ff9b
:020000040000fa
:100ea00000230e4a10b513600d4a0e4c13600e4a13
:100eb00013600e4a13600e4a13600e4a53621361a8
:100ec0000133936000f010fa00f00efa0a4b9c42d6
:100ed00000d310bd08cc9847f8e7c0467402002044
:100ee000c0010020d4020000bc010020b401002099
:0c0ef000b8010020c4010020d80200005e
:020000040000fa
:100efc0010b541f29b13c0f20003984741f29b13cb
:100f0c00c0f20003984700f0e0f940f20003c0f291
:100f1c0000037f2293434ef60052cef20002936000
:100f2c0040f6a163c0f20003984741f29b13c0f254
:100f3c000003984741f29b13c0f20003984700f05e
:040f4c003ef8fee786
:020000040000fa
:100f500010b5054c227832b9044b13b1044800e0b7
:100f600000bf0123237010bd4402002000000000d8
:100f700000000000034b10b51bb10349034800e01b
:100f800000bf10bd0000000048020020000000006b
:020000040000fa
:100f900040f20043c4f2000300221a819a79012131
:100fa0000a439a719b7803221340022b0cd040f223
:100fb0000043c4f20003013a9a705202c4f20002e4
:0a0fc000012193790b42fcd0704729
:020000040000fa
:100fca0010b582b08023db021c68002000f07df897
:100fda00631c0fd084f388880423c0f204031b68bf
:100fea000193019c64086400200021002200230070
:0a0ffa0000f052f8fff798fefee742
:020000040000fa
:1010040030b592b140f26823c2f200031b68441861
:10101400801841181b0225782b4301348c42f9d1e6
:1010240040f26822c2f20002136040f26823c2f266
:061034000003186830bd46
:020000040000fa
:02103a00fee7cf
:020000040000fa
:10103c00444953434f4e4e4543540000535452457c
:10104c00414d5f4f50454e004f54415f524551004a
:10105c004f54415f5354415254000000434f4e4e85
:04106c0045435400a4
:020000040000fa
:1010700043f20023c4f2000310221a60002244212c
:101080005a544339562019540130195431315a54a5
:10109000093124385854da66b1315a5080315a50e7
:0210a000704797
:020000040000fa
:1010a200e0b545464e465746e0b45d4620b4254677
:1010b20026462746a046a146a246a346a44684f356
:1010c2000088a44720bcab46e0bcba46b146a8465d
:0210d200e0bd7f
:020000040000fa
:1010d40010b5fff75bff45f20003c4f200130422ce
:1010e4005a60fff7c3fffff70bfdfff76bfd00f03e
:0c10f400bdf8fff712fbfff79bfe10bddc
:020000040000fa
:101100000a7830b562b930bd9a4208d10123cc5c6f
:10111000002cf8d0c55ca54201d10133f7e70130be
:0a1120000378002bf0d11800ede772
:020000040000fa
:10112a00030078b1002001290bd940f26022c2f2f3
:10113a000002136040f27c23c2f2000301391970e5
:08114a00013070470020fce7b2
:020000040000fa
:1011520040f20422c2f200029068d368984201d39e
:10116200c01a704740f20422c2f2000212698018cb
:04117200c01af6e7c2
:020000040000fa
:1011760040f20422c2f20002d36a906a834201d886
:10118600c01a704740f20422c2f20002126b8018a5
:04119600c01af6e79e
:020000040000fa
:02119a0070479c
:020000040000fa
:10119c00c7120000bf120000cf1200008312000023
:1011ac00e3120000e3110000e51200005d120000e4
:0411bc0079050000b1
:020000040000fa
:1011c00010b5fff75dfb0028fbd040f27e23c2f292
:1011d000000300221a7040f27f23c2f20003187845
:0211e00010bd40
:020000040000fa
:1011e20030b143f20023c4f2000310225a61704767
:0e11f20043f20023c4f2000310229a61f7e7d3
:020000040000fa
:1012000010b5fff796fd010002000300844610bcf4
:0a12100002bc864681f300880c47fb
:020000040000fa
:10121a0010b540f20423c2f200031c69fff794ffe1
:06122a00013c201a10bd7a
:020000040000fa
:1012300010b540f27824c2f2000401212000fff72b
:061240001ffd207810bd27
:020000040000fa
:1012460000b583b06b46d871073301211800fff74c
:06125600c2fb03b000bd65
:020000040000fa
:10125c0038b14bf68033584318b10138c0460028da
:04126c00fbd17047fb
:020000040000fa
:1012700045f20003c4f2001306225a60053a1a72be
:021280007047b5
:020000040000fa
:0e12820010b5fff777ff431e9841c0b210bdb4
:020000040000fa
:0e12900010b500f010f843425841c0b210bd36
:020000040000fa
:0c129e0040f28123c2f200031878704770
:020000040000fa
:0c12aa0040f28323c2f200031878704762
:020000040000fa
:0812b60010b5fff74bff10bd5e
:020000040000fa
:0812be0010b5fff7b6ff10bdeb
:020000040000fa
:0812c60010b5fff7bdff10bddc
:020000040000fa
:0812ce0010b5fff7deff10bdb3
:020000040000fa
:0812d60010b5fff774fd10bd17
:020000040000fa
:0212de00fee729
:020000040000fa
:0212e000fee727
:020000040000fa
:0212e200704753
:020000040000fa
:0212e400704751
:020000040000fa
:0212e600fee721
:020000040000fa
:0212e80070474d
:020000040000fa
:020000040003f7
:10fe00007fe97fe9c0f758ba7fe97fe9c1f7f8b920
:020000040000fa
:0200000400807a
:0440000077438fb0c3
:020000040000fa
:0200000400807a
:04400400bbf0ffff0f
:020000040000fa
:0200000400807a
:04400800008430f010
:020000040000fa
:0200000400807a
:04400c0000ffffffb3
:020000040000fa
:0200000400807a
:0440100000000000ac
:020000040000fa
:0200000400807a
:0440140002000000a6
:020000040000fa
:0200000400807a
:0440180000000000a4
:020000040000fa
:0200000400807a
:04401c0000000000a0
:020000040000fa
:0200000400807a
:04402000b67376e815
:020000040000fa
:0200000400807a
:04c00000ffff07f047
:020000040000fa
:0200000400807a
:04c004000000e8ff51
:020000040000fa
:0200000400807a
:04c00800cc9a34c0da
:020000040000fa
:0200000400807a
:04c01000ffffffff30
:020000040000fa
:0200000400807a
:04c01400ffffffff2c
:020000040000fa
:0200000400807a
:04c01800ffffffff28
:020000040000fa
:0200000400807a
:04c01c00ffffffff24
:020000040000fa
:0200000400807a
:04c02000ffffffff20
:020000040000fa
:0200000400807a
:04c02400ffffffff1c
:020000040000fa
:0200000400807a
:04c02800ffffffff18
:020000040000fa
:0200000400807a
:04c02c00ffffffff14
:020000040000fa
:0200000400807a
:04c03000ffffffff10
:020000040000fa
:0200000400807a
:04c03400ffffffff0c
:020000040000fa
:0200000400807a
:04c03800ffffffff08
:020000040000fa
:0200000400807a
:04c03c00ffffffff04
:020000040000fa
:0200000400807a
:04c04000ffffffff00
:020000040000fa
:0200000400807a
:04c04400fffffffffc
:020000040000fa
:0200000400807a
:04c04800fffffffff8
:020000040000fa
:0200000400807a
:04c04c00fffffffff4
:020000040000fa
:0200000400807a
:04c05000fffffffff0
:020000040000fa
:0200000400807a
:04c05400ffffffffec
:020000040000fa
:0200000400807a
:04c05800ffffffffe8
:020000040000fa
:0200000400807a
:04c05c00ffffffffe4
:020000040000fa
:0200000400807a
:04c06000ffffffffe0
:020000040000fa
:0200000400807a
:04c06400ffffffffdc
:020000040000fa
:0200000400807a
:04c06800ffffffffd8
:020000040000fa
:0200000400807a
:04c06c00ffffffffd4
:020000040000fa
:0200000400807a
:04c07000ffffffffd0
:020000040000fa
:0200000400807a
:04c07400ffffffffcc
:020000040000fa
:0200000400807a
:04c07800ffffffffc8
:020000040000fa
:0200000400807a
:04c07c00ffffffffc4
:020000040000fa
:0200000400807a
:04c08000ffffffffc0
:020000040000fa
:0200000400807a
:04c08400ffffffffbc
:020000040000fa
:0200000400807a
:04c08800ffffffffb8
:020000040000fa
:0200000400807a
:04c08c00ffffffffb4
:020000040000fa
:0200000400807a
:04c09000ffffffffb0
:020000040000fa
:0200000400807a
:04c09400ffffffffac
:020000040000fa
:0200000400807a
:04c09800ffffffffa8
:020000040000fa
:0200000400807a
:04c09c00ffffffffa4
:020000040000fa
:0200000400807a
:04c0a000ffffffffa0
:020000040000fa
:0200000400807a
:04c0a400ffffffff9c
:020000040000fa
:0200000400807a
:04c0a800ffffffff98
:020000040000fa
:0200000400807a
:04c0ac00ffffffff94
:020000040000fa
:0200000400807a
:04c0e000ffffffff60
:020000040000fa
:0200000400807a
:04c0e400ffffffff5c
:020000040000fa
:0200000400807a
:04c0e800ffffffff58
:020000040000fa
:0200000400807a
:04c0ec00ffffffff54
:020000040000fa
:0200000400807a
:04c0f000ffffffff50
:020000040000fa
:0200000400807a
:04c0f400ffffffff4c
:020000040000fa
:0200000400807a
:04c0f800ffffffff48
:020000040000fa
:0200000400807a
:04c0fc00ffffffff44
:00000001FF
